:02080000014EA7
:20084E00758E10758107900B9379007A007B007C00EB4C601CE493A3CAC583CAC9C582C9E0
:20086E00F0A3CAC583CAC9C582C91BBBFFE31C80E0900000E4F012088C12001B80FB748048
:20088E0075F025C0E0C0F01208D31581158174B575F008C0E0C0F0740175F0001208C215A6
:2008AE008115810208B1220A48656C6C6F20576F726C640023F42581F8120B691209311277
:2008CE000B6902090078FB120ACF8603088604748075F070120AF1120B2B758920F58DF55F
:2008EE008B7588497598522278FB120ACF8682088683E0602D12090FA380F778FB120ACF12
:20090E00E63099FDC299F599B40A17740D80F2E430980C3098FDC298E599B40D02740A7561
:20092E00F00022120AA8868208868308E4FEFFE4937006120AA8E4F022B42555A3E493B42E
:20094E002D06430780A3E493B4300343074024D0B40A00500CCE75F00AA42EFEA3E493804C
:20096E00EDE493B46413E60886F030F708430720120B2BA6F018F68003B4750543070A806C
:20098E0021B478054307108019B46F104307088011120AA8F0A3120AA8A38090B462624365
:2009AE0007027A00C004C005C006C007AB0753031F7C00E60886F0120AF1A6F018F6EDD01B
:2009CE0007D006D005D0042430B43A0040022407C0E00AE645F070CC120AA8A902EF30E560
:2009EE0005742DF0A30A120AB1D0E0F0A3D9FA0808EF30E7A1EAC39E509C7420F0A30A8024
:200A0E00F4B4630DAA01120AA8120AB1E6F0A380DEB4732CC082C08386820886837A00E052
:200A2E006004A30A80F9120AA3120AB1120AA8E0A3120AA86004F0A380F2D005D00480AF46
:200A4E00B4692786017A00E76004090A80F9120AA8120AB18601E76096F009A380F8F97AF0
:200A6E0001120AA8120AB1E980A3B472F1C082C08386820886837A00E4936004A30A80F89B
:200A8E00120AA3120AB1120AA8E493A3120AA860A9F0A380F18683188682CDC583CDCCC571
:200AAE0082CC22EE601A8FF020F715C002EAC39E500C742030F6027430F0A30A80EFD002FE
:200ACE0022C82581C822C92581C97A0022D083D082CF2581F581CFC082C08322CF2581F54A
:200AEE0081CF22C002C001AAF0F97E007D007F11C3E933F9EA33FADF08F5F0E9D001D0028E
:200B0E0022ED33FDEE33FEC3ED9BF5F0EE9C40E0ADF0FED380DB14B4FF0215F022120B2495
:200B2E00F4C5F0F4C5F022120B486009E4F5F022120B4860F7E4F5F00422C5F0C39C700348
:200B4E00E5F09B22FBE493CB22FCE493FB740193CC22FAE493F9740193CA22900000E0A3C1
:200B6E006014E0FFA3E0A3CF2582F582EF3583F58380EBFBE0CB22FCE0FBA3E0CC22FAE08D
:050B8E00F9A3E0CA22FA
:00000001FF
