:02080000014EA7
:20084E00758E10758107900CB779007A007B007C00EB4C601CE493A3CAC583CAC9C582C9BB
:20086E00F0A3CAC583CAC9C582C91BBBFFE31C80E0900002E4F012088C12001B80FB7F06B5
:20088E00120BC2748075F025C0E0C0F01209BA15811581740075F00078FB120BB6F608A6D9
:2008AE00F0740075F00008F608A6F0740075F00078F9120BB6F608A6F078F9120BB6E608E2
:2008CE0086F07B0A7C00120C2545F0700302096D801378F9120BB6E60886F0120C0E18F6BB
:2008EE0008A6F080D478F9120BB6E60886F0900000F0A3C5F0F0C5F008E60886F02403C57B
:20090E00F03400C5F018F608A6F0747575F009C0E0C0F018E60886F0C0E0C0F0740275F0F6
:20092E00001209A9158115811581158178FB120BB6E60886F008F608A6F0748975F009C01C
:20094E00E0C0F018E60886F0C0E0C0F0740275F0001209A915811581158115810208E0024A
:20096E00096D7FFA020BD156616C7565206F662078206973203D2025640A00546865207550
:20098E007064617465642076616C7565206F662079206973203D2025640A0023F42581F84B
:2009AE00120C8D120A18120C8D0209E778FB120BB68603088604748075F070120BD8120C70
:2009CE001B758920F58DF58B7588497598522278FB120BB68682088683E0602D1209F6A387
:2009EE0080F778FB120BB6E63099FDC299F599B40A17740D80F2E430980C3098FDC298E513
:200A0E0099B40D02740A75F00022120B8F868208868308E4FEFFE4937006120B8FE4F0222A
:200A2E00B42555A3E493B42D06430780A3E493B4300343074024D0B40A00500CCE75F00AD9
:200A4E00A42EFEA3E49380EDE493B46413E60886F030F708430720120C1BA6F018F6800332
:200A6E00B4750543070A8021B478054307108019B46F104307088011120B8FF0A3120B8F20
:200A8E00A38090B462624307027A00C004C005C006C007AB0753031F7C00E60886F0120B1D
:200AAE00D8A6F018F6EDD007D006D005D0042430B43A0040022407C0E00AE645F070CC12A7
:200ACE000B8FA902EF30E505742DF0A30A120B98D0E0F0A3D9FA0808EF30E7A1EAC39E505F
:200AEE009C7420F0A30A80F4B4630DAA01120B8F120B98E6F0A380DEB4732CC082C0838642
:200B0E00820886837A00E06004A30A80F9120B8A120B98120B8FE0A3120B8F6004F0A380A2
:200B2E00F2D005D00480AFB4692786017A00E76004090A80F9120B8F120B988601E76096FC
:200B4E00F009A380F8F97A01120B8F120B98E980A3B472F1C082C08386820886837A00E47F
:200B6E00936004A30A80F8120B8A120B98120B8FE493A3120B8F60A9F0A380F186831886C9
:200B8E0082CDC583CDCCC582CC22EE601A8FF020F715C002EAC39E500C742030F602743006
:200BAE00F0A30A80EFD00222C82581C822C92581C97A0022D083D082CF2581F581CFC0825A
:200BCE00C08322CF2581F581CF22C002C001AAF0F97E007D007F11C3E933F9EA33FADF084F
:200BEE00F5F0E9D001D00222ED33FDEE33FEC3ED9BF5F0EE9C40E0ADF0FED380DB120C0E49
:200C0E0004700205F02214B4FF0215F022120C14F4C5F0F4C5F022120C584029801E120C08
:200C2E005840227017801E120C5840107017800C120C5850108005120C6C6009E4F5F022B5
:200C4E00120C6C60F7E4F5F00422C39BC5F09C20E70720D207C345F02220D2F9D322C5F051
:200C6E00C39C7003E5F09B22FBE493CB22FCE493FB740193CC22FAE493F9740193CA229051
:200C8E000002E0A36014E0FFA3E0A3CF2582F582EF3583F58380EBFBE0CB22FCE0FBA3E0AF
:090CAE00CC22FAE0F9A3E0CA220D
:00000001FF
