:02080000014EA7
:20084E00758E10758107900D8F79007A007B007C00EB4C601CE493A3CAC583CAC9C582C9E2
:20086E00F0A3CAC583CAC9C582C91BBBFFE31C80E0900004E4F012088C12001B80FB7F14A5
:20088E00120C93740075F00079EB120C8C120CA9740A75F000F709A7F0740275F00079EB32
:2008AE00120C8C120CA9742D75F000F709A7F0740475F00079EB120C8C120CA9745075F041
:2008CE0000F709A7F0740675F00079EB120C8C120CA9744675F000F709A7F0740875F00028
:2008EE0079EB120C8C120CA9740C75F000F709A7F0740A75F00079EB120C8C120CA9740568
:20090E0075F000F709A7F0740C75F00079EB120C8C120CA9740175F000F709A7F0740E75AB
:20092E00F00079EB120C8C120CA9743775F000F709A7F0741075F00079EB120C8C120CA97F
:20094E00745A75F000F709A7F0741275F00079EB120C8C120CA9745575F000F709A7F074C6
:20096E008075F025C0E0C0F0120A8B15811581740075F00079EB120C8C120CA9E70987F027
:20098E00900002F0A3C5F0F0C5F0740175F000900000F0A3C5F0F0C5F0900000E0A3F5F07B
:2009AE00E0C5F07B0A7C00120CFD45F07003020A318019900000E0A3F5F0E0C5F0120CE669
:2009CE00900000F0A3C5F0F0C5F080CD900000E0A3F5F0E0C5F0C333C5F033C5F079EB12A9
:2009EE000C8C120CA9E70987F0900002120D81120D0D45F07003020A2E900000E0A3F5F0EB
:200A0E00E0C5F0C333C5F033C5F079EB120C8C120CA9E70987F0900002F0A3C5F0F0C5F0E5
:200A2E000209C1746075F00AC0E0C0F0900002E0A3F5F0E0C5F0C0E0C0F0740275F000127D
:200A4E000A7A1581158115811581020A587FEC020CA2546865206D6178696D756D206E75EB
:200A6E006D6265722069733A2025640023F42581F8120D65120AE9120D65020AB878FB12D8
:200A8E000C878603088604748075F070120CB0120CF3758920F58DF58B758849759852220B
:200AAE0078FB120C878682088683E0602D120AC7A380F778FB120C87E63099FDC299F599E0
:200ACE00B40A17740D80F2E430980C3098FDC298E599B40D02740A75F00022120C6086829D
:200AEE0008868308E4FEFFE4937006120C60E4F022B42555A3E493B42D06430780A3E4937A
:200B0E00B4300343074024D0B40A00500CCE75F00AA42EFEA3E49380EDE493B46413E60824
:200B2E0086F030F708430720120CF3A6F018F68003B4750543070A8021B478054307108032
:200B4E0019B46F104307088011120C60F0A3120C60A38090B462624307027A00C004C0054F
:200B6E00C006C007AB0753031F7C00E60886F0120CB0A6F018F6EDD007D006D005D00424FA
:200B8E0030B43A0040022407C0E00AE645F070CC120C60A902EF30E505742DF0A30A120C2D
:200BAE0069D0E0F0A3D9FA0808EF30E7A1EAC39E509C7420F0A30A80F4B4630DAA01120C28
:200BCE0060120C69E6F0A380DEB4732CC082C08386820886837A00E06004A30A80F9120C56
:200BEE005B120C69120C60E0A3120C606004F0A380F2D005D00480AFB4692786017A00E719
:200C0E006004090A80F9120C60120C698601E76096F009A380F8F97A01120C60120C69E9F7
:200C2E0080A3B472F1C082C08386820886837A00E4936004A30A80F8120C5B120C69120C36
:200C4E0060E493A3120C6060A9F0A380F18683188682CDC583CDCCC582CC22EE601A8FF08E
:200C6E0020F715C002EAC39E500C742030F6027430F0A30A80EFD00222C82581C822C9252B
:200C8E0081C97A0022D083D082CF2581F581CFC082C08322CF2581F581CF2229F9E5F03A4D
:200CAE00FA22C002C001AAF0F97E007D007F11C3E933F9EA33FADF08F5F0E9D001D0022200
:200CCE00ED33FDEE33FEC3ED9BF5F0EE9C40E0ADF0FED380DB120CE604700205F02214B4CE
:200CEE00FF0215F022120CECF4C5F0F4C5F022120D304029801E120D3040227017801E1202
:200D0E000D3040107017800C120D3050108005120D446009E4F5F022120D4460F7E4F5F0B7
:200D2E000422C39BC5F09C20E70720D207C345F02220D2F9D322C5F0C39C7003E5F09B22B6
:200D4E00FBE493CB22FCE493FB740193CC22FAE493F9740193CA22900004E0A36014E0FFFA
:200D6E00A3E0A3CF2582F582EF3583F58380EBFBE0CB22FCE0FBA3E0CC22FAE0F9A3E0CA98
:010D8E002242
:00000001FF
